{
  "contractName": "StateMachine",
  "abi": [
    {
      "inputs": [
        {
          "internalType": "uint256",
          "name": "loanAmount",
          "type": "uint256"
        },
        {
          "internalType": "uint256",
          "name": "loanInterest",
          "type": "uint256"
        },
        {
          "internalType": "uint256",
          "name": "loanDuration",
          "type": "uint256"
        },
        {
          "internalType": "address payable",
          "name": "lender",
          "type": "address"
        },
        {
          "internalType": "address payable",
          "name": "borrower",
          "type": "address"
        }
      ],
      "stateMutability": "nonpayable",
      "type": "constructor"
    },
    {
      "inputs": [],
      "name": "amount",
      "outputs": [
        {
          "internalType": "uint256",
          "name": "",
          "type": "uint256"
        }
      ],
      "stateMutability": "view",
      "type": "function",
      "constant": true
    },
    {
      "inputs": [],
      "name": "interest",
      "outputs": [
        {
          "internalType": "uint256",
          "name": "",
          "type": "uint256"
        }
      ],
      "stateMutability": "view",
      "type": "function",
      "constant": true
    },
    {
      "inputs": [],
      "name": "loanEnd",
      "outputs": [
        {
          "internalType": "uint256",
          "name": "",
          "type": "uint256"
        }
      ],
      "stateMutability": "view",
      "type": "function",
      "constant": true
    },
    {
      "inputs": [],
      "name": "moneyBorrower",
      "outputs": [
        {
          "internalType": "address payable",
          "name": "",
          "type": "address"
        }
      ],
      "stateMutability": "view",
      "type": "function",
      "constant": true
    },
    {
      "inputs": [],
      "name": "moneyLender",
      "outputs": [
        {
          "internalType": "address payable",
          "name": "",
          "type": "address"
        }
      ],
      "stateMutability": "view",
      "type": "function",
      "constant": true
    },
    {
      "inputs": [],
      "name": "state",
      "outputs": [
        {
          "internalType": "enum StateMachine.State",
          "name": "",
          "type": "uint8"
        }
      ],
      "stateMutability": "view",
      "type": "function",
      "constant": true
    },
    {
      "inputs": [],
      "name": "borrow",
      "outputs": [],
      "stateMutability": "payable",
      "type": "function",
      "payable": true
    },
    {
      "inputs": [],
      "name": "repay",
      "outputs": [],
      "stateMutability": "payable",
      "type": "function",
      "payable": true
    }
  ],
  "bytecode": "0x608060405260008060006101000a81548160ff021916908360028111156200002c576200002b62000113565b5b02179055503480156200003e57600080fd5b5060405162001119380380620011198339818101604052810190620000649190620001e7565b846001819055508360028190555082426200008091906200029e565b60038190555081600460006101000a81548173ffffffffffffffffffffffffffffffffffffffff021916908373ffffffffffffffffffffffffffffffffffffffff16021790555080600560006101000a81548173ffffffffffffffffffffffffffffffffffffffff021916908373ffffffffffffffffffffffffffffffffffffffff1602179055505050505050620002fb565b7f4e487b7100000000000000000000000000000000000000000000000000000000600052602160045260246000fd5b600080fd5b6000819050919050565b6200015c8162000147565b81146200016857600080fd5b50565b6000815190506200017c8162000151565b92915050565b600073ffffffffffffffffffffffffffffffffffffffff82169050919050565b6000620001af8262000182565b9050919050565b620001c181620001a2565b8114620001cd57600080fd5b50565b600081519050620001e181620001b6565b92915050565b600080600080600060a0868803121562000206576200020562000142565b5b600062000216888289016200016b565b955050602062000229888289016200016b565b94505060406200023c888289016200016b565b93505060606200024f88828901620001d0565b92505060806200026288828901620001d0565b9150509295509295909350565b7f4e487b7100000000000000000000000000000000000000000000000000000000600052601160045260246000fd5b6000620002ab8262000147565b9150620002b88362000147565b9250827fffffffffffffffffffffffffffffffffffffffffffffffffffffffffffffffff03821115620002f057620002ef6200026f565b5b828201905092915050565b610e0e806200030b6000396000f3fe60806040526004361061007b5760003560e01c8063c19d93fb1161004e578063c19d93fb1461010b578063c392f76614610136578063e68d356914610161578063ef2d7d501461016b5761007b565b80632da1fb8414610080578063402d8883146100ab5780634754d6aa146100b5578063aa8c217c146100e0575b600080fd5b34801561008c57600080fd5b50610095610196565b6040516100a291906107b1565b60405180910390f35b6100b36101bc565b005b3480156100c157600080fd5b506100ca610321565b6040516100d791906107b1565b60405180910390f35b3480156100ec57600080fd5b506100f5610347565b60405161010291906107e5565b60405180910390f35b34801561011757600080fd5b5061012061034d565b60405161012d9190610877565b60405180910390f35b34801561014257600080fd5b5061014b61035e565b60405161015891906107e5565b60405180910390f35b610169610364565b005b34801561017757600080fd5b506101806104af565b60405161018d91906107e5565b60405180910390f35b600560009054906101000a900473ffffffffffffffffffffffffffffffffffffffff1681565b600560009054906101000a900473ffffffffffffffffffffffffffffffffffffffff1673ffffffffffffffffffffffffffffffffffffffff163373ffffffffffffffffffffffffffffffffffffffff161461024c576040517f08c379a0000000000000000000000000000000000000000000000000000000008152600401610243906108ef565b60405180910390fd5b60025460015461025c919061093e565b341461029d576040517f08c379a000000000000000000000000000000000000000000000000000000000815260040161029490610a06565b60405180910390fd5b6102a760026104b5565b600460009054906101000a900473ffffffffffffffffffffffffffffffffffffffff1673ffffffffffffffffffffffffffffffffffffffff166108fc6002546001546102f3919061093e565b9081150290604051600060405180830381858888f1935050505015801561031e573d6000803e3d6000fd5b50565b600460009054906101000a900473ffffffffffffffffffffffffffffffffffffffff1681565b60015481565b60008054906101000a900460ff1681565b60025481565b600460009054906101000a900473ffffffffffffffffffffffffffffffffffffffff1673ffffffffffffffffffffffffffffffffffffffff163373ffffffffffffffffffffffffffffffffffffffff16146103f4576040517f08c379a00000000000000000000000000000000000000000000000000000000081526004016103eb90610a72565b60405180910390fd5b6001544714610438576040517f08c379a000000000000000000000000000000000000000000000000000000000815260040161042f90610b04565b60405180910390fd5b61044260016104b5565b600560009054906101000a900473ffffffffffffffffffffffffffffffffffffffff1673ffffffffffffffffffffffffffffffffffffffff166108fc6001549081150290604051600060405180830381858888f193505050501580156104ac573d6000803e3d6000fd5b50565b60035481565b600060028111156104c9576104c8610800565b5b8160028111156104dc576104db610800565b5b141561051d576040517f08c379a000000000000000000000000000000000000000000000000000000000815260040161051490610b70565b60405180910390fd5b60008054906101000a900460ff16600281111561053d5761053c610800565b5b8160028111156105505761054f610800565b5b1415610591576040517f08c379a000000000000000000000000000000000000000000000000000000000815260040161058890610c02565b60405180910390fd5b600160028111156105a5576105a4610800565b5b8160028111156105b8576105b7610800565b5b141561065d57600060028111156105d2576105d1610800565b5b60008054906101000a900460ff1660028111156105f2576105f1610800565b5b14610632576040517f08c379a000000000000000000000000000000000000000000000000000000000815260040161062990610c94565b60405180910390fd5b60016000806101000a81548160ff0219169083600281111561065757610656610800565b5b02179055505b6002808111156106705761066f610800565b5b81600281111561068357610682610800565b5b141561076d576001600281111561069d5761069c610800565b5b60008054906101000a900460ff1660028111156106bd576106bc610800565b5b146106fd576040517f08c379a00000000000000000000000000000000000000000000000000000000081526004016106f490610d26565b60405180910390fd5b600354421015610742576040517f08c379a000000000000000000000000000000000000000000000000000000000815260040161073990610db8565b60405180910390fd5b60026000806101000a81548160ff0219169083600281111561076757610766610800565b5b02179055505b50565b600073ffffffffffffffffffffffffffffffffffffffff82169050919050565b600061079b82610770565b9050919050565b6107ab81610790565b82525050565b60006020820190506107c660008301846107a2565b92915050565b6000819050919050565b6107df816107cc565b82525050565b60006020820190506107fa60008301846107d6565b92915050565b7f4e487b7100000000000000000000000000000000000000000000000000000000600052602160045260246000fd5b600381106108405761083f610800565b5b50565b60008190506108518261082f565b919050565b600061086182610843565b9050919050565b61087181610856565b82525050565b600060208201905061088c6000830184610868565b92915050565b600082825260208201905092915050565b7f4f6e6c7920626f72726f7765722063616e2072657061792e0000000000000000600082015250565b60006108d9601883610892565b91506108e4826108a3565b602082019050919050565b60006020820190508181036000830152610908816108cc565b9050919050565b7f4e487b7100000000000000000000000000000000000000000000000000000000600052601160045260246000fd5b6000610949826107cc565b9150610954836107cc565b9250827fffffffffffffffffffffffffffffffffffffffffffffffffffffffffffffffff038211156109895761098861090f565b5b828201905092915050565b7f426f72726f776572206d75737420726570617920657861637420616d6f756e7460008201527f2e00000000000000000000000000000000000000000000000000000000000000602082015250565b60006109f0602183610892565b91506109fb82610994565b604082019050919050565b60006020820190508181036000830152610a1f816109e3565b9050919050565b7f4f6e6c79206c656e6465722063616e20626f72726f772e000000000000000000600082015250565b6000610a5c601783610892565b9150610a6782610a26565b602082019050919050565b60006020820190508181036000830152610a8b81610a4f565b9050919050565b7f4c656e6465722063616e20626f72726f77206f6e6c7920657861637420616d6f60008201527f756e742e00000000000000000000000000000000000000000000000000000000602082015250565b6000610aee602483610892565b9150610af982610a92565b604082019050919050565b60006020820190508181036000830152610b1d81610ae1565b9050919050565b7f43616e6e6f74207472616e736974696f6e20746f2050454e44494e472e000000600082015250565b6000610b5a601d83610892565b9150610b6582610b24565b602082019050919050565b60006020820190508181036000830152610b8981610b4d565b9050919050565b7f43616e6e6f74207472616e736974696f6e20746f2063757272656e742073746160008201527f74652e0000000000000000000000000000000000000000000000000000000000602082015250565b6000610bec602383610892565b9150610bf782610b90565b604082019050919050565b60006020820190508181036000830152610c1b81610bdf565b9050919050565b7f4f6e6c792050454e44494e472063616e206265207472616e736974696f6e656460008201527f20746f204143544956452e000000000000000000000000000000000000000000602082015250565b6000610c7e602b83610892565b9150610c8982610c22565b604082019050919050565b60006020820190508181036000830152610cad81610c71565b9050919050565b7f4f6e6c79204143544956452063616e206265207472616e736974696f6e65642060008201527f746f20434c4f5345442e00000000000000000000000000000000000000000000602082015250565b6000610d10602a83610892565b9150610d1b82610cb4565b604082019050919050565b60006020820190508181036000830152610d3f81610d03565b9050919050565b7f43616e6e6f7420636c6f7365206c6f616e206265666f72652074686520656e6460008201527f2e00000000000000000000000000000000000000000000000000000000000000602082015250565b6000610da2602183610892565b9150610dad82610d46565b604082019050919050565b60006020820190508181036000830152610dd181610d95565b905091905056fea2646970667358221220fca79709b1f619142c3dc11f8f93b483e6c9d37f82dd769d842b0dd49c612ec364736f6c634300080b0033",
  "immutableReferences": {},
  "source": "// SPDX-License-Identifier: MIT\npragma solidity >=0.4.22 <0.9.0;\n\ncontract StateMachine {\n  enum State {\n    PENDING,\n    ACTIVE,\n    CLOSED\n  }\n  State public state = State.PENDING;\n  uint public amount;\n  uint public interest;\n  uint public loanEnd;\n  address payable public moneyLender;\n  address payable public moneyBorrower;\n  \n  constructor(uint loanAmount, uint loanInterest, uint loanDuration, address payable lender, address payable borrower) {\n    amount = loanAmount;\n    interest = loanInterest;\n    loanEnd = block.timestamp + loanDuration;\n    moneyLender = lender;\n    moneyBorrower = borrower;\n  }\n\n  function borrow() external payable {\n    require(msg.sender == moneyLender, 'Only lender can borrow.');\n    require(address(this).balance == amount, 'Lender can borrow only exact amount.');\n    _stateTransitionTo(State.ACTIVE);\n    moneyBorrower.transfer(amount);\n  }\n\n  function repay() external payable {\n    require(msg.sender == moneyBorrower, 'Only borrower can repay.');\n    require(msg.value == amount + interest, 'Borrower must repay exact amount.');\n    _stateTransitionTo(State.CLOSED);\n    moneyLender.transfer(amount + interest);\n  }\n\n  function _stateTransitionTo(State to) internal {\n    require(to != State.PENDING, 'Cannot transition to PENDING.');\n    require(to != state, 'Cannot transition to current state.');\n    if (to == State.ACTIVE) {\n      require(state == State.PENDING, 'Only PENDING can be transitioned to ACTIVE.');\n      state = State.ACTIVE;\n    }\n    if (to == State.CLOSED) {\n      require(state == State.ACTIVE, 'Only ACTIVE can be transitioned to CLOSED.');\n      require(block.timestamp >= loanEnd, 'Cannot close loan before the end.');\n      state = State.CLOSED;\n    }\n  }\n}\n",
  "sourcePath": "/var/www/html/dapp30/loan-state-machine/contracts/StateMachine.sol",
  "compiler": {
    "name": "solc",
    "version": "0.8.11+commit.d7f03943.Emscripten.clang"
  },
  "schemaVersion": "3.4.4",
  "updatedAt": "2022-06-02T15:22:38.414Z",
  "networkType": "ethereum",
  "devdoc": {
    "kind": "dev",
    "methods": {},
    "version": 1
  },
  "userdoc": {
    "kind": "user",
    "methods": {},
    "version": 1
  }
}